{
  "_format": "hh-sol-artifact-1",
  "contractName": "Lock",
  "sourceName": "contracts/Lock.sol",
  "abi": [
    {
      "inputs": [
        {
          "internalType": "address",
          "name": "",
          "type": "address"
        }
      ],
      "name": "_owners",
      "outputs": [
        {
          "internalType": "address",
          "name": "account",
          "type": "address"
        },
        {
          "internalType": "uint8",
          "name": "reputation_score",
          "type": "uint8"
        },
        {
          "internalType": "uint256",
          "name": "createdAt",
          "type": "uint256"
        },
        {
          "internalType": "string",
          "name": "handle",
          "type": "string"
        },
        {
          "internalType": "string",
          "name": "profession",
          "type": "string"
        },
        {
          "internalType": "string",
          "name": "Country",
          "type": "string"
        },
        {
          "internalType": "string",
          "name": "timezone",
          "type": "string"
        }
      ],
      "stateMutability": "view",
      "type": "function"
    },
    {
      "inputs": [
        {
          "internalType": "bytes32",
          "name": "slot",
          "type": "bytes32"
        }
      ],
      "name": "getDataFromSlotDirectly",
      "outputs": [
        {
          "internalType": "bytes32",
          "name": "result",
          "type": "bytes32"
        }
      ],
      "stateMutability": "view",
      "type": "function"
    },
    {
      "inputs": [
        {
          "internalType": "uint256",
          "name": "slot",
          "type": "uint256"
        }
      ],
      "name": "getDataFromSlotDirectlyUintType",
      "outputs": [
        {
          "internalType": "uint256",
          "name": "result",
          "type": "uint256"
        }
      ],
      "stateMutability": "view",
      "type": "function"
    },
    {
      "inputs": [
        {
          "internalType": "bytes",
          "name": "_currentSlot",
          "type": "bytes"
        }
      ],
      "name": "getNextSlot",
      "outputs": [
        {
          "internalType": "bytes",
          "name": "nextslot",
          "type": "bytes"
        }
      ],
      "stateMutability": "view",
      "type": "function"
    },
    {
      "inputs": [
        {
          "internalType": "uint256",
          "name": "num",
          "type": "uint256"
        },
        {
          "internalType": "uint256",
          "name": "slot",
          "type": "uint256"
        }
      ],
      "name": "getStorageValue",
      "outputs": [
        {
          "internalType": "uint256",
          "name": "result",
          "type": "uint256"
        }
      ],
      "stateMutability": "view",
      "type": "function"
    },
    {
      "inputs": [
        {
          "internalType": "address",
          "name": "_user",
          "type": "address"
        },
        {
          "internalType": "uint256",
          "name": "slot",
          "type": "uint256"
        }
      ],
      "name": "getslotForMapping",
      "outputs": [
        {
          "internalType": "bytes32",
          "name": "hash",
          "type": "bytes32"
        }
      ],
      "stateMutability": "view",
      "type": "function"
    },
    {
      "inputs": [
        {
          "internalType": "address",
          "name": "account",
          "type": "address"
        },
        {
          "internalType": "uint8",
          "name": "reputation_score",
          "type": "uint8"
        },
        {
          "internalType": "uint256",
          "name": "createdAt",
          "type": "uint256"
        },
        {
          "internalType": "string",
          "name": "handle",
          "type": "string"
        },
        {
          "internalType": "string",
          "name": "profession",
          "type": "string"
        },
        {
          "internalType": "string",
          "name": "Country",
          "type": "string"
        },
        {
          "internalType": "string",
          "name": "timezone",
          "type": "string"
        }
      ],
      "name": "set",
      "outputs": [],
      "stateMutability": "nonpayable",
      "type": "function"
    },
    {
      "inputs": [
        {
          "internalType": "uint256",
          "name": "slot",
          "type": "uint256"
        },
        {
          "internalType": "uint256",
          "name": "value",
          "type": "uint256"
        }
      ],
      "name": "writeValueToStorage",
      "outputs": [],
      "stateMutability": "nonpayable",
      "type": "function"
    }
  ],
  "bytecode": "0x60806040526040518060600160405280602681526020016200164d60269139600190816200002e9190620002bd565b503480156200003c57600080fd5b50620003a4565b600081519050919050565b7f4e487b7100000000000000000000000000000000000000000000000000000000600052604160045260246000fd5b7f4e487b7100000000000000000000000000000000000000000000000000000000600052602260045260246000fd5b60006002820490506001821680620000c557607f821691505b602082108103620000db57620000da6200007d565b5b50919050565b60008190508160005260206000209050919050565b60006020601f8301049050919050565b600082821b905092915050565b600060088302620001457fffffffffffffffffffffffffffffffffffffffffffffffffffffffffffffffff8262000106565b62000151868362000106565b95508019841693508086168417925050509392505050565b6000819050919050565b6000819050919050565b60006200019e62000198620001928462000169565b62000173565b62000169565b9050919050565b6000819050919050565b620001ba836200017d565b620001d2620001c982620001a5565b84845462000113565b825550505050565b600090565b620001e9620001da565b620001f6818484620001af565b505050565b5b818110156200021e5762000212600082620001df565b600181019050620001fc565b5050565b601f8211156200026d576200023781620000e1565b6200024284620000f6565b8101602085101562000252578190505b6200026a6200026185620000f6565b830182620001fb565b50505b505050565b600082821c905092915050565b6000620002926000198460080262000272565b1980831691505092915050565b6000620002ad83836200027f565b9150826002028217905092915050565b620002c88262000043565b67ffffffffffffffff811115620002e457620002e36200004e565b5b620002f08254620000ac565b620002fd82828562000222565b600060209050601f83116001811462000335576000841562000320578287015190505b6200032c85826200029f565b8655506200039c565b601f1984166200034586620000e1565b60005b828110156200036f5784890151825560018201915060208501945060208101905062000348565b868310156200038f57848901516200038b601f8916826200027f565b8355505b6001600288020188555050505b505050505050565b61129980620003b46000396000f3fe608060405234801561001057600080fd5b50600436106100885760003560e01c8063bf3a5c021161005b578063bf3a5c0214610139578063c55db3ec1461016f578063cfd251121461019f578063f3c6df0a146101bb57610088565b8063728be26d1461008d5780637bfaabcf146100bd5780639f132629146100ed578063bdb0cdae1461011d575b600080fd5b6100a760048036038101906100a29190610929565b6101eb565b6040516100b491906109f1565b60405180910390f35b6100d760048036038101906100d29190610a49565b610217565b6040516100e49190610a98565b60405180910390f35b61010760048036038101906101029190610ae9565b610231565b6040516101149190610b25565b60405180910390f35b61013760048036038101906101329190610a49565b61023c565b005b610153600480360381019061014e9190610b9e565b610243565b6040516101669796959493929190610c4b565b60405180910390f35b61018960048036038101906101849190610cd6565b6104d2565b6040516101969190610a98565b60405180910390f35b6101b960048036038101906101b49190610dd0565b6104dd565b005b6101d560048036038101906101d09190610ee2565b610742565b6040516101e29190610b25565b60405180910390f35b6060600060016101fa84610759565b6102049190610f51565b905061020f8161076c565b915050919050565b600082600052816020526040600020805491505092915050565b600081549050919050565b8082525050565b60006020528060005260406000206000915090508060000160009054906101000a900473ffffffffffffffffffffffffffffffffffffffff16908060000160149054906101000a900460ff16908060010154908060020180546102a590610fb4565b80601f01602080910402602001604051908101604052809291908181526020018280546102d190610fb4565b801561031e5780601f106102f35761010080835404028352916020019161031e565b820191906000526020600020905b81548152906001019060200180831161030157829003601f168201915b50505050509080600301805461033390610fb4565b80601f016020809104026020016040519081016040528092919081815260200182805461035f90610fb4565b80156103ac5780601f10610381576101008083540402835291602001916103ac565b820191906000526020600020905b81548152906001019060200180831161038f57829003601f168201915b5050505050908060040180546103c190610fb4565b80601f01602080910402602001604051908101604052809291908181526020018280546103ed90610fb4565b801561043a5780601f1061040f5761010080835404028352916020019161043a565b820191906000526020600020905b81548152906001019060200180831161041d57829003601f168201915b50505050509080600501805461044f90610fb4565b80601f016020809104026020016040519081016040528092919081815260200182805461047b90610fb4565b80156104c85780601f1061049d576101008083540402835291602001916104c8565b820191906000526020600020905b8154815290600101906020018083116104ab57829003601f168201915b5050505050905087565b600081549050919050565b866000803373ffffffffffffffffffffffffffffffffffffffff1673ffffffffffffffffffffffffffffffffffffffff16815260200190815260200160002060000160006101000a81548173ffffffffffffffffffffffffffffffffffffffff021916908373ffffffffffffffffffffffffffffffffffffffff160217905550856000803373ffffffffffffffffffffffffffffffffffffffff1673ffffffffffffffffffffffffffffffffffffffff16815260200190815260200160002060000160146101000a81548160ff021916908360ff160217905550846000803373ffffffffffffffffffffffffffffffffffffffff1673ffffffffffffffffffffffffffffffffffffffff16815260200190815260200160002060010181905550836000803373ffffffffffffffffffffffffffffffffffffffff1673ffffffffffffffffffffffffffffffffffffffff168152602001908152602001600020600201908161064b9190611191565b50826000803373ffffffffffffffffffffffffffffffffffffffff1673ffffffffffffffffffffffffffffffffffffffff168152602001908152602001600020600301908161069a9190611191565b50816000803373ffffffffffffffffffffffffffffffffffffffff1673ffffffffffffffffffffffffffffffffffffffff16815260200190815260200160002060040190816106e99190611191565b50806000803373ffffffffffffffffffffffffffffffffffffffff1673ffffffffffffffffffffffffffffffffffffffff16815260200190815260200160002060050190816107389190611191565b5050505050505050565b600082600052816020526040600020905092915050565b6000806020830151905080915050919050565b60606000602067ffffffffffffffff81111561078b5761078a6107fe565b5b6040519080825280601f01601f1916602001820160405280156107bd5781602001600182028036833780820191505090505b50905082602082015280915050919050565b6000604051905090565b600080fd5b600080fd5b600080fd5b600080fd5b6000601f19601f8301169050919050565b7f4e487b7100000000000000000000000000000000000000000000000000000000600052604160045260246000fd5b610836826107ed565b810181811067ffffffffffffffff82111715610855576108546107fe565b5b80604052505050565b60006108686107cf565b9050610874828261082d565b919050565b600067ffffffffffffffff821115610894576108936107fe565b5b61089d826107ed565b9050602081019050919050565b82818337600083830152505050565b60006108cc6108c784610879565b61085e565b9050828152602081018484840111156108e8576108e76107e8565b5b6108f38482856108aa565b509392505050565b600082601f8301126109105761090f6107e3565b5b81356109208482602086016108b9565b91505092915050565b60006020828403121561093f5761093e6107d9565b5b600082013567ffffffffffffffff81111561095d5761095c6107de565b5b610969848285016108fb565b91505092915050565b600081519050919050565b600082825260208201905092915050565b60005b838110156109ac578082015181840152602081019050610991565b60008484015250505050565b60006109c382610972565b6109cd818561097d565b93506109dd81856020860161098e565b6109e6816107ed565b840191505092915050565b60006020820190508181036000830152610a0b81846109b8565b905092915050565b6000819050919050565b610a2681610a13565b8114610a3157600080fd5b50565b600081359050610a4381610a1d565b92915050565b60008060408385031215610a6057610a5f6107d9565b5b6000610a6e85828601610a34565b9250506020610a7f85828601610a34565b9150509250929050565b610a9281610a13565b82525050565b6000602082019050610aad6000830184610a89565b92915050565b6000819050919050565b610ac681610ab3565b8114610ad157600080fd5b50565b600081359050610ae381610abd565b92915050565b600060208284031215610aff57610afe6107d9565b5b6000610b0d84828501610ad4565b91505092915050565b610b1f81610ab3565b82525050565b6000602082019050610b3a6000830184610b16565b92915050565b600073ffffffffffffffffffffffffffffffffffffffff82169050919050565b6000610b6b82610b40565b9050919050565b610b7b81610b60565b8114610b8657600080fd5b50565b600081359050610b9881610b72565b92915050565b600060208284031215610bb457610bb36107d9565b5b6000610bc284828501610b89565b91505092915050565b610bd481610b60565b82525050565b600060ff82169050919050565b610bf081610bda565b82525050565b600081519050919050565b600082825260208201905092915050565b6000610c1d82610bf6565b610c278185610c01565b9350610c3781856020860161098e565b610c40816107ed565b840191505092915050565b600060e082019050610c60600083018a610bcb565b610c6d6020830189610be7565b610c7a6040830188610a89565b8181036060830152610c8c8187610c12565b90508181036080830152610ca08186610c12565b905081810360a0830152610cb48185610c12565b905081810360c0830152610cc88184610c12565b905098975050505050505050565b600060208284031215610cec57610ceb6107d9565b5b6000610cfa84828501610a34565b91505092915050565b610d0c81610bda565b8114610d1757600080fd5b50565b600081359050610d2981610d03565b92915050565b600067ffffffffffffffff821115610d4a57610d496107fe565b5b610d53826107ed565b9050602081019050919050565b6000610d73610d6e84610d2f565b61085e565b905082815260208101848484011115610d8f57610d8e6107e8565b5b610d9a8482856108aa565b509392505050565b600082601f830112610db757610db66107e3565b5b8135610dc7848260208601610d60565b91505092915050565b600080600080600080600060e0888a031215610def57610dee6107d9565b5b6000610dfd8a828b01610b89565b9750506020610e0e8a828b01610d1a565b9650506040610e1f8a828b01610a34565b955050606088013567ffffffffffffffff811115610e4057610e3f6107de565b5b610e4c8a828b01610da2565b945050608088013567ffffffffffffffff811115610e6d57610e6c6107de565b5b610e798a828b01610da2565b93505060a088013567ffffffffffffffff811115610e9a57610e996107de565b5b610ea68a828b01610da2565b92505060c088013567ffffffffffffffff811115610ec757610ec66107de565b5b610ed38a828b01610da2565b91505092959891949750929550565b60008060408385031215610ef957610ef86107d9565b5b6000610f0785828601610b89565b9250506020610f1885828601610a34565b9150509250929050565b7f4e487b7100000000000000000000000000000000000000000000000000000000600052601160045260246000fd5b6000610f5c82610a13565b9150610f6783610a13565b9250828201905080821115610f7f57610f7e610f22565b5b92915050565b7f4e487b7100000000000000000000000000000000000000000000000000000000600052602260045260246000fd5b60006002820490506001821680610fcc57607f821691505b602082108103610fdf57610fde610f85565b5b50919050565b60008190508160005260206000209050919050565b60006020601f8301049050919050565b600082821b905092915050565b6000600883026110477fffffffffffffffffffffffffffffffffffffffffffffffffffffffffffffffff8261100a565b611051868361100a565b95508019841693508086168417925050509392505050565b6000819050919050565b600061108e61108961108484610a13565b611069565b610a13565b9050919050565b6000819050919050565b6110a883611073565b6110bc6110b482611095565b848454611017565b825550505050565b600090565b6110d16110c4565b6110dc81848461109f565b505050565b5b81811015611100576110f56000826110c9565b6001810190506110e2565b5050565b601f8211156111455761111681610fe5565b61111f84610ffa565b8101602085101561112e578190505b61114261113a85610ffa565b8301826110e1565b50505b505050565b600082821c905092915050565b60006111686000198460080261114a565b1980831691505092915050565b60006111818383611157565b9150826002028217905092915050565b61119a82610bf6565b67ffffffffffffffff8111156111b3576111b26107fe565b5b6111bd8254610fb4565b6111c8828285611104565b600060209050601f8311600181146111fb57600084156111e9578287015190505b6111f38582611175565b86555061125b565b601f19841661120986610fe5565b60005b828110156112315784890151825560018201915060208501945060208101905061120c565b8683101561124e578489015161124a601f891682611157565b8355505b6001600288020188555050505b50505050505056fea264697066735822122092d08cc781bad1c5fb18595ce8e80ce61dff044af75861332ff4147c28c6b25964736f6c63430008110033616a6179206b756d6172207961646176206461727368616e206e616761722061796f64687961",
  "linkReferences": {},
  "deployedLinkReferences": {}
}